{
    "_format": "hh-sol-artifact-1",
    "contractName": "MemoryCards",
    "sourceName": "contracts/MemoryCards.sol",
    "abi": [
        {
            "inputs": [],
            "stateMutability": "nonpayable",
            "type": "constructor"
        },
        {
            "anonymous": false,
            "inputs": [
                {
                    "indexed": true,
                    "internalType": "address",
                    "name": "owner",
                    "type": "address"
                },
                {
                    "indexed": true,
                    "internalType": "address",
                    "name": "approved",
                    "type": "address"
                },
                {
                    "indexed": true,
                    "internalType": "uint256",
                    "name": "tokenId",
                    "type": "uint256"
                }
            ],
            "name": "Approval",
            "type": "event"
        },
        {
            "anonymous": false,
            "inputs": [
                {
                    "indexed": true,
                    "internalType": "address",
                    "name": "owner",
                    "type": "address"
                },
                {
                    "indexed": true,
                    "internalType": "address",
                    "name": "operator",
                    "type": "address"
                },
                {
                    "indexed": false,
                    "internalType": "bool",
                    "name": "approved",
                    "type": "bool"
                }
            ],
            "name": "ApprovalForAll",
            "type": "event"
        },
        {
            "anonymous": false,
            "inputs": [
                {
                    "indexed": true,
                    "internalType": "address",
                    "name": "from",
                    "type": "address"
                },
                {
                    "indexed": true,
                    "internalType": "address",
                    "name": "to",
                    "type": "address"
                },
                {
                    "indexed": true,
                    "internalType": "uint256",
                    "name": "tokenId",
                    "type": "uint256"
                }
            ],
            "name": "Transfer",
            "type": "event"
        },
        {
            "inputs": [
                {
                    "internalType": "address",
                    "name": "to",
                    "type": "address"
                },
                {
                    "internalType": "uint256",
                    "name": "tokenId",
                    "type": "uint256"
                }
            ],
            "name": "approve",
            "outputs": [],
            "stateMutability": "nonpayable",
            "type": "function"
        },
        {
            "inputs": [
                {
                    "internalType": "address",
                    "name": "owner",
                    "type": "address"
                }
            ],
            "name": "balanceOf",
            "outputs": [
                {
                    "internalType": "uint256",
                    "name": "",
                    "type": "uint256"
                }
            ],
            "stateMutability": "view",
            "type": "function"
        },
        {
            "inputs": [
                {
                    "internalType": "uint256",
                    "name": "tokenId",
                    "type": "uint256"
                }
            ],
            "name": "getApproved",
            "outputs": [
                {
                    "internalType": "address",
                    "name": "",
                    "type": "address"
                }
            ],
            "stateMutability": "view",
            "type": "function"
        },
        {
            "inputs": [
                {
                    "internalType": "uint256",
                    "name": "tokenId",
                    "type": "uint256"
                }
            ],
            "name": "getTokenSvg",
            "outputs": [
                {
                    "internalType": "string",
                    "name": "",
                    "type": "string"
                }
            ],
            "stateMutability": "view",
            "type": "function"
        },
        {
            "inputs": [
                {
                    "internalType": "uint256",
                    "name": "tokenId",
                    "type": "uint256"
                }
            ],
            "name": "getTokenURI",
            "outputs": [
                {
                    "internalType": "string",
                    "name": "",
                    "type": "string"
                }
            ],
            "stateMutability": "view",
            "type": "function"
        },
        {
            "inputs": [
                {
                    "internalType": "address",
                    "name": "owner",
                    "type": "address"
                },
                {
                    "internalType": "address",
                    "name": "operator",
                    "type": "address"
                }
            ],
            "name": "isApprovedForAll",
            "outputs": [
                {
                    "internalType": "bool",
                    "name": "",
                    "type": "bool"
                }
            ],
            "stateMutability": "view",
            "type": "function"
        },
        {
            "inputs": [
                {
                    "internalType": "uint256",
                    "name": "tokenId",
                    "type": "uint256"
                },
                {
                    "internalType": "string",
                    "name": "gameName",
                    "type": "string"
                }
            ],
            "name": "loadGame",
            "outputs": [
                {
                    "internalType": "string",
                    "name": "",
                    "type": "string"
                }
            ],
            "stateMutability": "view",
            "type": "function"
        },
        {
            "inputs": [],
            "name": "mint",
            "outputs": [],
            "stateMutability": "nonpayable",
            "type": "function"
        },
        {
            "inputs": [],
            "name": "name",
            "outputs": [
                {
                    "internalType": "string",
                    "name": "",
                    "type": "string"
                }
            ],
            "stateMutability": "view",
            "type": "function"
        },
        {
            "inputs": [
                {
                    "internalType": "uint256",
                    "name": "tokenId",
                    "type": "uint256"
                }
            ],
            "name": "ownerOf",
            "outputs": [
                {
                    "internalType": "address",
                    "name": "",
                    "type": "address"
                }
            ],
            "stateMutability": "view",
            "type": "function"
        },
        {
            "inputs": [
                {
                    "internalType": "address",
                    "name": "from",
                    "type": "address"
                },
                {
                    "internalType": "address",
                    "name": "to",
                    "type": "address"
                },
                {
                    "internalType": "uint256",
                    "name": "tokenId",
                    "type": "uint256"
                }
            ],
            "name": "safeTransferFrom",
            "outputs": [],
            "stateMutability": "nonpayable",
            "type": "function"
        },
        {
            "inputs": [
                {
                    "internalType": "address",
                    "name": "from",
                    "type": "address"
                },
                {
                    "internalType": "address",
                    "name": "to",
                    "type": "address"
                },
                {
                    "internalType": "uint256",
                    "name": "tokenId",
                    "type": "uint256"
                },
                {
                    "internalType": "bytes",
                    "name": "data",
                    "type": "bytes"
                }
            ],
            "name": "safeTransferFrom",
            "outputs": [],
            "stateMutability": "nonpayable",
            "type": "function"
        },
        {
            "inputs": [
                {
                    "internalType": "uint256",
                    "name": "tokenId",
                    "type": "uint256"
                },
                {
                    "internalType": "string",
                    "name": "gameName",
                    "type": "string"
                },
                {
                    "internalType": "string",
                    "name": "data",
                    "type": "string"
                }
            ],
            "name": "saveGame",
            "outputs": [],
            "stateMutability": "nonpayable",
            "type": "function"
        },
        {
            "inputs": [
                {
                    "internalType": "address",
                    "name": "operator",
                    "type": "address"
                },
                {
                    "internalType": "bool",
                    "name": "approved",
                    "type": "bool"
                }
            ],
            "name": "setApprovalForAll",
            "outputs": [],
            "stateMutability": "nonpayable",
            "type": "function"
        },
        {
            "inputs": [
                {
                    "internalType": "bytes4",
                    "name": "interfaceId",
                    "type": "bytes4"
                }
            ],
            "name": "supportsInterface",
            "outputs": [
                {
                    "internalType": "bool",
                    "name": "",
                    "type": "bool"
                }
            ],
            "stateMutability": "view",
            "type": "function"
        },
        {
            "inputs": [],
            "name": "symbol",
            "outputs": [
                {
                    "internalType": "string",
                    "name": "",
                    "type": "string"
                }
            ],
            "stateMutability": "view",
            "type": "function"
        },
        {
            "inputs": [
                {
                    "internalType": "uint256",
                    "name": "tokenId",
                    "type": "uint256"
                }
            ],
            "name": "tokenURI",
            "outputs": [
                {
                    "internalType": "string",
                    "name": "",
                    "type": "string"
                }
            ],
            "stateMutability": "view",
            "type": "function"
        },
        {
            "inputs": [
                {
                    "internalType": "address",
                    "name": "from",
                    "type": "address"
                },
                {
                    "internalType": "address",
                    "name": "to",
                    "type": "address"
                },
                {
                    "internalType": "uint256",
                    "name": "tokenId",
                    "type": "uint256"
                }
            ],
            "name": "transferFrom",
            "outputs": [],
            "stateMutability": "nonpayable",
            "type": "function"
        }
    ],
    "bytecode": "0x60806040523480156200001157600080fd5b506040518060400160405280600b81526020017f4d656d6f727943617264730000000000000000000000000000000000000000008152506040518060400160405280600281526020017f4d4300000000000000000000000000000000000000000000000000000000000081525081600090816200008f919062000324565b508060019081620000a1919062000324565b5050506200040b565b600081519050919050565b7f4e487b7100000000000000000000000000000000000000000000000000000000600052604160045260246000fd5b7f4e487b7100000000000000000000000000000000000000000000000000000000600052602260045260246000fd5b600060028204905060018216806200012c57607f821691505b602082108103620001425762000141620000e4565b5b50919050565b60008190508160005260206000209050919050565b60006020601f8301049050919050565b600082821b905092915050565b600060088302620001ac7fffffffffffffffffffffffffffffffffffffffffffffffffffffffffffffffff826200016d565b620001b886836200016d565b95508019841693508086168417925050509392505050565b6000819050919050565b6000819050919050565b600062000205620001ff620001f984620001d0565b620001da565b620001d0565b9050919050565b6000819050919050565b6200022183620001e4565b6200023962000230826200020c565b8484546200017a565b825550505050565b600090565b6200025062000241565b6200025d81848462000216565b505050565b5b8181101562000285576200027960008262000246565b60018101905062000263565b5050565b601f821115620002d4576200029e8162000148565b620002a9846200015d565b81016020851015620002b9578190505b620002d1620002c8856200015d565b83018262000262565b50505b505050565b600082821c905092915050565b6000620002f960001984600802620002d9565b1980831691505092915050565b6000620003148383620002e6565b9150826002028217905092915050565b6200032f82620000aa565b67ffffffffffffffff8111156200034b576200034a620000b5565b5b62000357825462000113565b6200036482828562000289565b600060209050601f8311600181146200039c576000841562000387578287015190505b62000393858262000306565b86555062000403565b601f198416620003ac8662000148565b60005b82811015620003d657848901518255600182019150602085019450602081019050620003af565b86831015620003f65784890151620003f2601f891682620002e6565b8355505b6001600288020188555050505b505050505050565b613e6d806200041b6000396000f3fe608060405234801561001057600080fd5b50600436106101165760003560e01c80636352211e116100a2578063a22cb46511610071578063a22cb46514610305578063b88d4fde14610321578063c87b56dd1461033d578063cad461e41461036d578063e985e9c51461038957610116565b80636352211e1461025757806370a08231146102875780638d97fc43146102b757806395d89b41146102e757610116565b80631249c58b116100e95780631249c58b146101b557806323b872dd146101bf5780633bb3a24d146101db57806342842e0e1461020b5780635e6856c51461022757610116565b806301ffc9a71461011b57806306fdde031461014b578063081812fc14610169578063095ea7b314610199575b600080fd5b6101356004803603810190610130919061216e565b6103b9565b60405161014291906121b6565b60405180910390f35b61015361049b565b6040516101609190612261565b60405180910390f35b610183600480360381019061017e91906122b9565b61052d565b6040516101909190612327565b60405180910390f35b6101b360048036038101906101ae919061236e565b610573565b005b6101bd61068a565b005b6101d960048036038101906101d491906123ae565b6106c1565b005b6101f560048036038101906101f091906122b9565b610721565b6040516102029190612261565b60405180910390f35b610225600480360381019061022091906123ae565b610789565b005b610241600480360381019061023c91906122b9565b6107a9565b60405161024e9190612261565b60405180910390f35b610271600480360381019061026c91906122b9565b61096f565b60405161027e9190612327565b60405180910390f35b6102a1600480360381019061029c9190612401565b610a20565b6040516102ae919061243d565b60405180910390f35b6102d160048036038101906102cc919061258d565b610ad7565b6040516102de9190612261565b60405180910390f35b6102ef610c57565b6040516102fc9190612261565b60405180910390f35b61031f600480360381019061031a9190612615565b610ce9565b005b61033b600480360381019061033691906126f6565b610cff565b005b610357600480360381019061035291906122b9565b610d61565b6040516103649190612261565b60405180910390f35b61038760048036038101906103829190612779565b610e73565b005b6103a3600480360381019061039e9190612804565b610fdd565b6040516103b091906121b6565b60405180910390f35b60007f80ac58cd000000000000000000000000000000000000000000000000000000007bffffffffffffffffffffffffffffffffffffffffffffffffffffffff1916827bffffffffffffffffffffffffffffffffffffffffffffffffffffffff1916148061048457507f5b5e139f000000000000000000000000000000000000000000000000000000007bffffffffffffffffffffffffffffffffffffffffffffffffffffffff1916827bffffffffffffffffffffffffffffffffffffffffffffffffffffffff1916145b80610494575061049382611071565b5b9050919050565b6060600080546104aa90612873565b80601f01602080910402602001604051908101604052809291908181526020018280546104d690612873565b80156105235780601f106104f857610100808354040283529160200191610523565b820191906000526020600020905b81548152906001019060200180831161050657829003601f168201915b5050505050905090565b6000610538826110db565b6004600083815260200190815260200160002060009054906101000a900473ffffffffffffffffffffffffffffffffffffffff169050919050565b600061057e8261096f565b90508073ffffffffffffffffffffffffffffffffffffffff168373ffffffffffffffffffffffffffffffffffffffff16036105ee576040517f08c379a00000000000000000000000000000000000000000000000000000000081526004016105e590612916565b60405180910390fd5b8073ffffffffffffffffffffffffffffffffffffffff1661060d611126565b73ffffffffffffffffffffffffffffffffffffffff16148061063c575061063b81610636611126565b610fdd565b5b61067b576040517f08c379a0000000000000000000000000000000000000000000000000000000008152600401610672906129a8565b60405180910390fd5b610685838361112e565b505050565b61069460076111e7565b60006106a060076111fd565b90506106ac338261120b565b6106be816106b983610721565b611229565b50565b6106d26106cc611126565b82611296565b610711576040517f08c379a000000000000000000000000000000000000000000000000000000000815260040161070890612a3a565b60405180910390fd5b61071c83838361132b565b505050565b6060600061072e83611591565b610737846107a9565b604051602001610748929190612cd0565b6040516020818303038152906040529050610762816116f1565b6040516020016107729190612d8d565b604051602081830303815290604052915050919050565b6107a483838360405180602001604052806000815250610cff565b505050565b6060600061089860096000858152602001908152602001600020805480602002602001604051908101604052809291908181526020016000905b8282101561088f57838290600052602060002001805461080290612873565b80601f016020809104026020016040519081016040528092919081815260200182805461082e90612873565b801561087b5780601f106108505761010080835404028352916020019161087b565b820191906000526020600020905b81548152906001019060200180831161085e57829003601f168201915b5050505050815260200190600101906107e3565b50505050611854565b6040516020016108a8919061318b565b60405160208183030381529060405290506108f86040518060400160405280600781526020017f5356473a2025730000000000000000000000000000000000000000000000000081525082611909565b61093f6040518060400160405280600f81526020017f456e636f646564205356473a202573000000000000000000000000000000000081525061093a836116f1565b611909565b610948816116f1565b6040516020016109589190613251565b604051602081830303815290604052915050919050565b6000806002600084815260200190815260200160002060009054906101000a900473ffffffffffffffffffffffffffffffffffffffff169050600073ffffffffffffffffffffffffffffffffffffffff168173ffffffffffffffffffffffffffffffffffffffff1603610a17576040517f08c379a0000000000000000000000000000000000000000000000000000000008152600401610a0e906132bf565b60405180910390fd5b80915050919050565b60008073ffffffffffffffffffffffffffffffffffffffff168273ffffffffffffffffffffffffffffffffffffffff1603610a90576040517f08c379a0000000000000000000000000000000000000000000000000000000008152600401610a8790613351565b60405180910390fd5b600360008373ffffffffffffffffffffffffffffffffffffffff1673ffffffffffffffffffffffffffffffffffffffff168152602001908152602001600020549050919050565b6060610ae2836119a5565b610b21576040517f08c379a0000000000000000000000000000000000000000000000000000000008152600401610b18906133bd565b60405180910390fd5b3373ffffffffffffffffffffffffffffffffffffffff16610b418461096f565b73ffffffffffffffffffffffffffffffffffffffff1614610b97576040517f08c379a0000000000000000000000000000000000000000000000000000000008152600401610b8e90613429565b60405180910390fd5b6008600084815260200190815260200160002082604051610bb89190613449565b90815260200160405180910390208054610bd190612873565b80601f0160208091040260200160405190810160405280929190818152602001828054610bfd90612873565b8015610c4a5780601f10610c1f57610100808354040283529160200191610c4a565b820191906000526020600020905b815481529060010190602001808311610c2d57829003601f168201915b5050505050905092915050565b606060018054610c6690612873565b80601f0160208091040260200160405190810160405280929190818152602001828054610c9290612873565b8015610cdf5780601f10610cb457610100808354040283529160200191610cdf565b820191906000526020600020905b815481529060010190602001808311610cc257829003601f168201915b5050505050905090565b610cfb610cf4611126565b8383611a11565b5050565b610d10610d0a611126565b83611296565b610d4f576040517f08c379a0000000000000000000000000000000000000000000000000000000008152600401610d4690612a3a565b60405180910390fd5b610d5b84848484611b7d565b50505050565b6060610d6c826110db565b6000600660008481526020019081526020016000208054610d8c90612873565b80601f0160208091040260200160405190810160405280929190818152602001828054610db890612873565b8015610e055780601f10610dda57610100808354040283529160200191610e05565b820191906000526020600020905b815481529060010190602001808311610de857829003601f168201915b505050505090506000610e16611bd9565b90506000815103610e2b578192505050610e6e565b600082511115610e60578082604051602001610e48929190613460565b60405160208183030381529060405292505050610e6e565b610e6984611bf0565b925050505b919050565b610e7c836119a5565b610ebb576040517f08c379a0000000000000000000000000000000000000000000000000000000008152600401610eb2906133bd565b60405180910390fd5b3373ffffffffffffffffffffffffffffffffffffffff16610edb8461096f565b73ffffffffffffffffffffffffffffffffffffffff1614610f31576040517f08c379a0000000000000000000000000000000000000000000000000000000008152600401610f2890613429565b60405180910390fd5b610f3a82611c58565b610f4381611c58565b806008600085815260200190815260200160002083604051610f659190613449565b90815260200160405180910390209081610f7f9190613630565b506009600084815260200190815260200160002082908060018154018082558091505060019003906000526020600020016000909190919091509081610fc59190613630565b50610fd883610fd385610721565b611229565b505050565b6000600560008473ffffffffffffffffffffffffffffffffffffffff1673ffffffffffffffffffffffffffffffffffffffff16815260200190815260200160002060008373ffffffffffffffffffffffffffffffffffffffff1673ffffffffffffffffffffffffffffffffffffffff16815260200190815260200160002060009054906101000a900460ff16905092915050565b60007f01ffc9a7000000000000000000000000000000000000000000000000000000007bffffffffffffffffffffffffffffffffffffffffffffffffffffffff1916827bffffffffffffffffffffffffffffffffffffffffffffffffffffffff1916149050919050565b6110e4816119a5565b611123576040517f08c379a000000000000000000000000000000000000000000000000000000000815260040161111a906132bf565b60405180910390fd5b50565b600033905090565b816004600083815260200190815260200160002060006101000a81548173ffffffffffffffffffffffffffffffffffffffff021916908373ffffffffffffffffffffffffffffffffffffffff160217905550808273ffffffffffffffffffffffffffffffffffffffff166111a18361096f565b73ffffffffffffffffffffffffffffffffffffffff167f8c5be1e5ebec7d5bd14f71427d1e84f3dd0314c0f7b2291e5b200ac8c7c3b92560405160405180910390a45050565b6001816000016000828254019250508190555050565b600081600001549050919050565b611225828260405180602001604052806000815250611cf1565b5050565b611232826119a5565b611271576040517f08c379a000000000000000000000000000000000000000000000000000000000815260040161126890613774565b60405180910390fd5b806006600084815260200190815260200160002090816112919190613630565b505050565b6000806112a28361096f565b90508073ffffffffffffffffffffffffffffffffffffffff168473ffffffffffffffffffffffffffffffffffffffff1614806112e457506112e38185610fdd565b5b8061132257508373ffffffffffffffffffffffffffffffffffffffff1661130a8461052d565b73ffffffffffffffffffffffffffffffffffffffff16145b91505092915050565b8273ffffffffffffffffffffffffffffffffffffffff1661134b8261096f565b73ffffffffffffffffffffffffffffffffffffffff16146113a1576040517f08c379a000000000000000000000000000000000000000000000000000000000815260040161139890613806565b60405180910390fd5b600073ffffffffffffffffffffffffffffffffffffffff168273ffffffffffffffffffffffffffffffffffffffff1603611410576040517f08c379a000000000000000000000000000000000000000000000000000000000815260040161140790613898565b60405180910390fd5b61141b838383611d4c565b61142660008261112e565b6001600360008573ffffffffffffffffffffffffffffffffffffffff1673ffffffffffffffffffffffffffffffffffffffff168152602001908152602001600020600082825461147691906138e7565b925050819055506001600360008473ffffffffffffffffffffffffffffffffffffffff1673ffffffffffffffffffffffffffffffffffffffff16815260200190815260200160002060008282546114cd919061391b565b92505081905550816002600083815260200190815260200160002060006101000a81548173ffffffffffffffffffffffffffffffffffffffff021916908373ffffffffffffffffffffffffffffffffffffffff160217905550808273ffffffffffffffffffffffffffffffffffffffff168473ffffffffffffffffffffffffffffffffffffffff167fddf252ad1be2c89b69c2b068fc378daa952ba7f163c4a11628f55a4df523b3ef60405160405180910390a461158c838383611d51565b505050565b6060600082036115d8576040518060400160405280600181526020017f300000000000000000000000000000000000000000000000000000000000000081525090506116ec565b600082905060005b6000821461160a5780806115f39061394f565b915050600a8261160391906139c6565b91506115e0565b60008167ffffffffffffffff81111561162657611625612462565b5b6040519080825280601f01601f1916602001820160405280156116585781602001600182028036833780820191505090505b5090505b600085146116e55760018261167191906138e7565b9150600a8561168091906139f7565b603061168c919061391b565b60f81b8183815181106116a2576116a1613a28565b5b60200101907effffffffffffffffffffffffffffffffffffffffffffffffffffffffffffff1916908160001a905350600a856116de91906139c6565b945061165c565b8093505050505b919050565b606060008251036117135760405180602001604052806000815250905061184f565b6000604051806060016040528060408152602001613df86040913990506000600360028551611742919061391b565b61174c91906139c6565b60046117589190613a57565b67ffffffffffffffff81111561177157611770612462565b5b6040519080825280601f01601f1916602001820160405280156117a35781602001600182028036833780820191505090505b509050600182016020820185865187015b8082101561180f576003820191508151603f8160121c168501518453600184019350603f81600c1c168501518453600184019350603f8160061c168501518453600184019350603f81168501518453600184019350506117b4565b505060038651066001811461182b576002811461183e57611846565b603d6001830353603d6002830353611846565b603d60018303535b50505080925050505b919050565b6060600060405180602001604052806000815250905060005b83518110156118ff578184828151811061188a57611889613a28565b5b60200260200101516040516020016118a3929190613460565b6040516020818303038152906040529150600184516118c291906138e7565b8110156118ec57816040516020016118da9190613ae5565b60405160208183030381529060405291505b80806118f79061394f565b91505061186d565b5080915050919050565b6119a1828260405160240161191f929190613b07565b6040516020818303038152906040527f4b5c4277000000000000000000000000000000000000000000000000000000007bffffffffffffffffffffffffffffffffffffffffffffffffffffffff19166020820180517bffffffffffffffffffffffffffffffffffffffffffffffffffffffff8381831617835250505050611d56565b5050565b60008073ffffffffffffffffffffffffffffffffffffffff166002600084815260200190815260200160002060009054906101000a900473ffffffffffffffffffffffffffffffffffffffff1673ffffffffffffffffffffffffffffffffffffffff1614159050919050565b8173ffffffffffffffffffffffffffffffffffffffff168373ffffffffffffffffffffffffffffffffffffffff1603611a7f576040517f08c379a0000000000000000000000000000000000000000000000000000000008152600401611a7690613b8a565b60405180910390fd5b80600560008573ffffffffffffffffffffffffffffffffffffffff1673ffffffffffffffffffffffffffffffffffffffff16815260200190815260200160002060008473ffffffffffffffffffffffffffffffffffffffff1673ffffffffffffffffffffffffffffffffffffffff16815260200190815260200160002060006101000a81548160ff0219169083151502179055508173ffffffffffffffffffffffffffffffffffffffff168373ffffffffffffffffffffffffffffffffffffffff167f17307eab39ab6107e8899845ad3d59bd9653f200f220920489ca2b5937696c3183604051611b7091906121b6565b60405180910390a3505050565b611b8884848461132b565b611b9484848484611d7f565b611bd3576040517f08c379a0000000000000000000000000000000000000000000000000000000008152600401611bca90613c1c565b60405180910390fd5b50505050565b606060405180602001604052806000815250905090565b6060611bfb826110db565b6000611c05611bd9565b90506000815111611c255760405180602001604052806000815250611c50565b80611c2f84611591565b604051602001611c40929190613460565b6040516020818303038152906040525b915050919050565b611cee81604051602401611c6c9190612261565b6040516020818303038152906040527f41304fac000000000000000000000000000000000000000000000000000000007bffffffffffffffffffffffffffffffffffffffffffffffffffffffff19166020820180517bffffffffffffffffffffffffffffffffffffffffffffffffffffffff8381831617835250505050611d56565b50565b611cfb8383611f06565b611d086000848484611d7f565b611d47576040517f08c379a0000000000000000000000000000000000000000000000000000000008152600401611d3e90613c1c565b60405180910390fd5b505050565b505050565b505050565b60008151905060006a636f6e736f6c652e6c6f679050602083016000808483855afa5050505050565b6000611da08473ffffffffffffffffffffffffffffffffffffffff166120df565b15611ef9578373ffffffffffffffffffffffffffffffffffffffff1663150b7a02611dc9611126565b8786866040518563ffffffff1660e01b8152600401611deb9493929190613c91565b6020604051808303816000875af1925050508015611e2757506040513d601f19601f82011682018060405250810190611e249190613cf2565b60015b611ea9573d8060008114611e57576040519150601f19603f3d011682016040523d82523d6000602084013e611e5c565b606091505b506000815103611ea1576040517f08c379a0000000000000000000000000000000000000000000000000000000008152600401611e9890613c1c565b60405180910390fd5b805181602001fd5b63150b7a0260e01b7bffffffffffffffffffffffffffffffffffffffffffffffffffffffff1916817bffffffffffffffffffffffffffffffffffffffffffffffffffffffff191614915050611efe565b600190505b949350505050565b600073ffffffffffffffffffffffffffffffffffffffff168273ffffffffffffffffffffffffffffffffffffffff1603611f75576040517f08c379a0000000000000000000000000000000000000000000000000000000008152600401611f6c90613d6b565b60405180910390fd5b611f7e816119a5565b15611fbe576040517f08c379a0000000000000000000000000000000000000000000000000000000008152600401611fb590613dd7565b60405180910390fd5b611fca60008383611d4c565b6001600360008473ffffffffffffffffffffffffffffffffffffffff1673ffffffffffffffffffffffffffffffffffffffff168152602001908152602001600020600082825461201a919061391b565b92505081905550816002600083815260200190815260200160002060006101000a81548173ffffffffffffffffffffffffffffffffffffffff021916908373ffffffffffffffffffffffffffffffffffffffff160217905550808273ffffffffffffffffffffffffffffffffffffffff16600073ffffffffffffffffffffffffffffffffffffffff167fddf252ad1be2c89b69c2b068fc378daa952ba7f163c4a11628f55a4df523b3ef60405160405180910390a46120db60008383611d51565b5050565b6000808273ffffffffffffffffffffffffffffffffffffffff163b119050919050565b6000604051905090565b600080fd5b600080fd5b60007fffffffff0000000000000000000000000000000000000000000000000000000082169050919050565b61214b81612116565b811461215657600080fd5b50565b60008135905061216881612142565b92915050565b6000602082840312156121845761218361210c565b5b600061219284828501612159565b91505092915050565b60008115159050919050565b6121b08161219b565b82525050565b60006020820190506121cb60008301846121a7565b92915050565b600081519050919050565b600082825260208201905092915050565b60005b8381101561220b5780820151818401526020810190506121f0565b60008484015250505050565b6000601f19601f8301169050919050565b6000612233826121d1565b61223d81856121dc565b935061224d8185602086016121ed565b61225681612217565b840191505092915050565b6000602082019050818103600083015261227b8184612228565b905092915050565b6000819050919050565b61229681612283565b81146122a157600080fd5b50565b6000813590506122b38161228d565b92915050565b6000602082840312156122cf576122ce61210c565b5b60006122dd848285016122a4565b91505092915050565b600073ffffffffffffffffffffffffffffffffffffffff82169050919050565b6000612311826122e6565b9050919050565b61232181612306565b82525050565b600060208201905061233c6000830184612318565b92915050565b61234b81612306565b811461235657600080fd5b50565b60008135905061236881612342565b92915050565b600080604083850312156123855761238461210c565b5b600061239385828601612359565b92505060206123a4858286016122a4565b9150509250929050565b6000806000606084860312156123c7576123c661210c565b5b60006123d586828701612359565b93505060206123e686828701612359565b92505060406123f7868287016122a4565b9150509250925092565b6000602082840312156124175761241661210c565b5b600061242584828501612359565b91505092915050565b61243781612283565b82525050565b6000602082019050612452600083018461242e565b92915050565b600080fd5b600080fd5b7f4e487b7100000000000000000000000000000000000000000000000000000000600052604160045260246000fd5b61249a82612217565b810181811067ffffffffffffffff821117156124b9576124b8612462565b5b80604052505050565b60006124cc612102565b90506124d88282612491565b919050565b600067ffffffffffffffff8211156124f8576124f7612462565b5b61250182612217565b9050602081019050919050565b82818337600083830152505050565b600061253061252b846124dd565b6124c2565b90508281526020810184848401111561254c5761254b61245d565b5b61255784828561250e565b509392505050565b600082601f83011261257457612573612458565b5b813561258484826020860161251d565b91505092915050565b600080604083850312156125a4576125a361210c565b5b60006125b2858286016122a4565b925050602083013567ffffffffffffffff8111156125d3576125d2612111565b5b6125df8582860161255f565b9150509250929050565b6125f28161219b565b81146125fd57600080fd5b50565b60008135905061260f816125e9565b92915050565b6000806040838503121561262c5761262b61210c565b5b600061263a85828601612359565b925050602061264b85828601612600565b9150509250929050565b600067ffffffffffffffff8211156126705761266f612462565b5b61267982612217565b9050602081019050919050565b600061269961269484612655565b6124c2565b9050828152602081018484840111156126b5576126b461245d565b5b6126c084828561250e565b509392505050565b600082601f8301126126dd576126dc612458565b5b81356126ed848260208601612686565b91505092915050565b600080600080608085870312156127105761270f61210c565b5b600061271e87828801612359565b945050602061272f87828801612359565b9350506040612740878288016122a4565b925050606085013567ffffffffffffffff81111561276157612760612111565b5b61276d878288016126c8565b91505092959194509250565b6000806000606084860312156127925761279161210c565b5b60006127a0868287016122a4565b935050602084013567ffffffffffffffff8111156127c1576127c0612111565b5b6127cd8682870161255f565b925050604084013567ffffffffffffffff8111156127ee576127ed612111565b5b6127fa8682870161255f565b9150509250925092565b6000806040838503121561281b5761281a61210c565b5b600061282985828601612359565b925050602061283a85828601612359565b9150509250929050565b7f4e487b7100000000000000000000000000000000000000000000000000000000600052602260045260246000fd5b6000600282049050600182168061288b57607f821691505b60208210810361289e5761289d612844565b5b50919050565b7f4552433732313a20617070726f76616c20746f2063757272656e74206f776e6560008201527f7200000000000000000000000000000000000000000000000000000000000000602082015250565b60006129006021836121dc565b915061290b826128a4565b604082019050919050565b6000602082019050818103600083015261292f816128f3565b9050919050565b7f4552433732313a20617070726f76652063616c6c6572206973206e6f7420746f60008201527f6b656e206f776e6572206e6f7220617070726f76656420666f7220616c6c0000602082015250565b6000612992603e836121dc565b915061299d82612936565b604082019050919050565b600060208201905081810360008301526129c181612985565b9050919050565b7f4552433732313a2063616c6c6572206973206e6f7420746f6b656e206f776e6560008201527f72206e6f7220617070726f766564000000000000000000000000000000000000602082015250565b6000612a24602e836121dc565b9150612a2f826129c8565b604082019050919050565b60006020820190508181036000830152612a5381612a17565b9050919050565b600081905092915050565b7f7b00000000000000000000000000000000000000000000000000000000000000600082015250565b6000612a9b600183612a5a565b9150612aa682612a65565b600182019050919050565b7f226e616d65223a20224d656d6f72792043617264202300000000000000000000600082015250565b6000612ae7601683612a5a565b9150612af282612ab1565b601682019050919050565b6000612b08826121d1565b612b128185612a5a565b9350612b228185602086016121ed565b80840191505092915050565b7f222c000000000000000000000000000000000000000000000000000000000000600082015250565b6000612b64600283612a5a565b9150612b6f82612b2e565b600282019050919050565b7f226465736372697074696f6e223a202241204d656d6f7279204361726420666f60008201527f72204e45532067616d65732e222c000000000000000000000000000000000000602082015250565b6000612bd6602e83612a5a565b9150612be182612b7a565b602e82019050919050565b7f22696d616765223a202200000000000000000000000000000000000000000000600082015250565b6000612c22600a83612a5a565b9150612c2d82612bec565b600a82019050919050565b7f2200000000000000000000000000000000000000000000000000000000000000600082015250565b6000612c6e600183612a5a565b9150612c7982612c38565b600182019050919050565b7f7d00000000000000000000000000000000000000000000000000000000000000600082015250565b6000612cba600183612a5a565b9150612cc582612c84565b600182019050919050565b6000612cdb82612a8e565b9150612ce682612ada565b9150612cf28285612afd565b9150612cfd82612b57565b9150612d0882612bc9565b9150612d1382612c15565b9150612d1f8284612afd565b9150612d2a82612c61565b9150612d3582612cad565b91508190509392505050565b7f646174613a6170706c69636174696f6e2f6a736f6e3b6261736536342c000000600082015250565b6000612d77601d83612a5a565b9150612d8282612d41565b601d82019050919050565b6000612d9882612d6a565b9150612da48284612afd565b915081905092915050565b7f3c73766720786d6c6e733d22687474703a2f2f7777772e77332e6f72672f323060008201527f30302f73766722207072657365727665417370656374526174696f3d22784d6960208201527f6e594d696e206d656574222076696577426f783d22302030203335302033353060408201527f223e000000000000000000000000000000000000000000000000000000000000606082015250565b6000612e57606283612a5a565b9150612e6282612daf565b606282019050919050565b7f3c7374796c653e2e62617365207b2066696c6c3a2077686974653b20666f6e7460008201527f2d66616d696c793a2073657269663b20666f6e742d73697a653a20313470783b60208201527f207d3c2f7374796c653e00000000000000000000000000000000000000000000604082015250565b6000612eef604a83612a5a565b9150612efa82612e6d565b604a82019050919050565b7f3c726563742077696474683d223130302522206865696768743d22313030252260008201527f2066696c6c3d22626c61636b22202f3e00000000000000000000000000000000602082015250565b6000612f61603083612a5a565b9150612f6c82612f05565b603082019050919050565b7f3c7465787420783d223530252220793d223130252220636c6173733d2262617360008201527f652220646f6d696e616e742d626173656c696e653d226d6964646c652220746560208201527f78742d616e63686f723d226d6964646c65223e00000000000000000000000000604082015250565b6000612ff9605383612a5a565b915061300482612f77565b605382019050919050565b7f53617665642047616d65733a2000000000000000000000000000000000000000600082015250565b6000613045600d83612a5a565b91506130508261300f565b600d82019050919050565b7f3c2f746578743e00000000000000000000000000000000000000000000000000600082015250565b6000613091600783612a5a565b915061309c8261305b565b600782019050919050565b7f3c7465787420783d223530252220793d223230252220636c6173733d2262617360008201527f652220646f6d696e616e742d626173656c696e653d226d6964646c652220746560208201527f78742d616e63686f723d226d6964646c65223e00000000000000000000000000604082015250565b6000613129605383612a5a565b9150613134826130a7565b605382019050919050565b7f3c2f7376673e0000000000000000000000000000000000000000000000000000600082015250565b6000613175600683612a5a565b91506131808261313f565b600682019050919050565b600061319682612e4a565b91506131a182612ee2565b91506131ac82612f54565b91506131b782612fec565b91506131c282613038565b91506131cd82613084565b91506131d88261311c565b91506131e48284612afd565b91506131ef82613084565b91506131fa82613168565b915081905092915050565b7f646174613a696d6167652f7376672b786d6c3b6261736536342c000000000000600082015250565b600061323b601a83612a5a565b915061324682613205565b601a82019050919050565b600061325c8261322e565b91506132688284612afd565b915081905092915050565b7f4552433732313a20696e76616c696420746f6b656e2049440000000000000000600082015250565b60006132a96018836121dc565b91506132b482613273565b602082019050919050565b600060208201905081810360008301526132d88161329c565b9050919050565b7f4552433732313a2061646472657373207a65726f206973206e6f74206120766160008201527f6c6964206f776e65720000000000000000000000000000000000000000000000602082015250565b600061333b6029836121dc565b9150613346826132df565b604082019050919050565b6000602082019050818103600083015261336a8161332e565b9050919050565b7f4d656d6f7279206361726420646f6573206e6f74206578697374000000000000600082015250565b60006133a7601a836121dc565b91506133b282613371565b602082019050919050565b600060208201905081810360008301526133d68161339a565b9050919050565b7f596f7520646f206e6f74206f776e2074686973206d656d6f7279206361726400600082015250565b6000613413601f836121dc565b915061341e826133dd565b602082019050919050565b6000602082019050818103600083015261344281613406565b9050919050565b60006134558284612afd565b915081905092915050565b600061346c8285612afd565b91506134788284612afd565b91508190509392505050565b60008190508160005260206000209050919050565b60006020601f8301049050919050565b600082821b905092915050565b6000600883026134e67fffffffffffffffffffffffffffffffffffffffffffffffffffffffffffffffff826134a9565b6134f086836134a9565b95508019841693508086168417925050509392505050565b6000819050919050565b600061352d61352861352384612283565b613508565b612283565b9050919050565b6000819050919050565b61354783613512565b61355b61355382613534565b8484546134b6565b825550505050565b600090565b613570613563565b61357b81848461353e565b505050565b5b8181101561359f57613594600082613568565b600181019050613581565b5050565b601f8211156135e4576135b581613484565b6135be84613499565b810160208510156135cd578190505b6135e16135d985613499565b830182613580565b50505b505050565b600082821c905092915050565b6000613607600019846008026135e9565b1980831691505092915050565b600061362083836135f6565b9150826002028217905092915050565b613639826121d1565b67ffffffffffffffff81111561365257613651612462565b5b61365c8254612873565b6136678282856135a3565b600060209050601f83116001811461369a5760008415613688578287015190505b6136928582613614565b8655506136fa565b601f1984166136a886613484565b60005b828110156136d0578489015182556001820191506020850194506020810190506136ab565b868310156136ed57848901516136e9601f8916826135f6565b8355505b6001600288020188555050505b505050505050565b7f45524337323155524953746f726167653a2055524920736574206f66206e6f6e60008201527f6578697374656e7420746f6b656e000000000000000000000000000000000000602082015250565b600061375e602e836121dc565b915061376982613702565b604082019050919050565b6000602082019050818103600083015261378d81613751565b9050919050565b7f4552433732313a207472616e736665722066726f6d20696e636f72726563742060008201527f6f776e6572000000000000000000000000000000000000000000000000000000602082015250565b60006137f06025836121dc565b91506137fb82613794565b604082019050919050565b6000602082019050818103600083015261381f816137e3565b9050919050565b7f4552433732313a207472616e7366657220746f20746865207a65726f2061646460008201527f7265737300000000000000000000000000000000000000000000000000000000602082015250565b60006138826024836121dc565b915061388d82613826565b604082019050919050565b600060208201905081810360008301526138b181613875565b9050919050565b7f4e487b7100000000000000000000000000000000000000000000000000000000600052601160045260246000fd5b60006138f282612283565b91506138fd83612283565b9250828203905081811115613915576139146138b8565b5b92915050565b600061392682612283565b915061393183612283565b9250828201905080821115613949576139486138b8565b5b92915050565b600061395a82612283565b91507fffffffffffffffffffffffffffffffffffffffffffffffffffffffffffffffff820361398c5761398b6138b8565b5b600182019050919050565b7f4e487b7100000000000000000000000000000000000000000000000000000000600052601260045260246000fd5b60006139d182612283565b91506139dc83612283565b9250826139ec576139eb613997565b5b828204905092915050565b6000613a0282612283565b9150613a0d83612283565b925082613a1d57613a1c613997565b5b828206905092915050565b7f4e487b7100000000000000000000000000000000000000000000000000000000600052603260045260246000fd5b6000613a6282612283565b9150613a6d83612283565b9250828202613a7b81612283565b91508282048414831517613a9257613a916138b8565b5b5092915050565b7f2c00000000000000000000000000000000000000000000000000000000000000600082015250565b6000613acf600183612a5a565b9150613ada82613a99565b600182019050919050565b6000613af18284612afd565b9150613afc82613ac2565b915081905092915050565b60006040820190508181036000830152613b218185612228565b90508181036020830152613b358184612228565b90509392505050565b7f4552433732313a20617070726f766520746f2063616c6c657200000000000000600082015250565b6000613b746019836121dc565b9150613b7f82613b3e565b602082019050919050565b60006020820190508181036000830152613ba381613b67565b9050919050565b7f4552433732313a207472616e7366657220746f206e6f6e20455243373231526560008201527f63656976657220696d706c656d656e7465720000000000000000000000000000602082015250565b6000613c066032836121dc565b9150613c1182613baa565b604082019050919050565b60006020820190508181036000830152613c3581613bf9565b9050919050565b600081519050919050565b600082825260208201905092915050565b6000613c6382613c3c565b613c6d8185613c47565b9350613c7d8185602086016121ed565b613c8681612217565b840191505092915050565b6000608082019050613ca66000830187612318565b613cb36020830186612318565b613cc0604083018561242e565b8181036060830152613cd28184613c58565b905095945050505050565b600081519050613cec81612142565b92915050565b600060208284031215613d0857613d0761210c565b5b6000613d1684828501613cdd565b91505092915050565b7f4552433732313a206d696e7420746f20746865207a65726f2061646472657373600082015250565b6000613d556020836121dc565b9150613d6082613d1f565b602082019050919050565b60006020820190508181036000830152613d8481613d48565b9050919050565b7f4552433732313a20746f6b656e20616c7265616479206d696e74656400000000600082015250565b6000613dc1601c836121dc565b9150613dcc82613d8b565b602082019050919050565b60006020820190508181036000830152613df081613db4565b905091905056fe4142434445464748494a4b4c4d4e4f505152535455565758595a6162636465666768696a6b6c6d6e6f707172737475767778797a303132333435363738392b2fa26469706673582212204ee72bf7db467721f78631a5114de5b6cbf9879e1301059ee9aabcabe677110164736f6c63430008110033",
    "linkReferences": {},
    "deployedLinkReferences": {}
}